{
  "contractName": "DogsUpdated",
  "abi": [
    {
      "constant": true,
      "inputs": [],
      "name": "_initialized",
      "outputs": [
        {
          "name": "",
          "type": "bool"
        }
      ],
      "payable": false,
      "stateMutability": "view",
      "type": "function"
    },
    {
      "constant": true,
      "inputs": [],
      "name": "owner",
      "outputs": [
        {
          "name": "",
          "type": "address"
        }
      ],
      "payable": false,
      "stateMutability": "view",
      "type": "function"
    },
    {
      "inputs": [],
      "payable": false,
      "stateMutability": "nonpayable",
      "type": "constructor"
    },
    {
      "constant": false,
      "inputs": [
        {
          "name": "_owner",
          "type": "address"
        }
      ],
      "name": "initialize",
      "outputs": [],
      "payable": false,
      "stateMutability": "nonpayable",
      "type": "function"
    },
    {
      "constant": true,
      "inputs": [],
      "name": "getNumberofDogs",
      "outputs": [
        {
          "name": "",
          "type": "uint256"
        }
      ],
      "payable": false,
      "stateMutability": "view",
      "type": "function"
    },
    {
      "constant": false,
      "inputs": [
        {
          "name": "toSet",
          "type": "uint256"
        }
      ],
      "name": "setNumberofDogs",
      "outputs": [],
      "payable": false,
      "stateMutability": "nonpayable",
      "type": "function"
    }
  ],
  "bytecode": "0x608060405234801561001057600080fd5b506100293361002e640100000000026401000000009004565b6100a9565b600560149054906101000a900460ff1615151561004a57600080fd5b80600560006101000a81548173ffffffffffffffffffffffffffffffffffffffff021916908373ffffffffffffffffffffffffffffffffffffffff1602179055506001600560146101000a81548160ff02191690831515021790555050565b61033c806100b86000396000f3fe608060405234801561001057600080fd5b5060043610610074576000357c0100000000000000000000000000000000000000000000000000000000900480633072cf6014610079578063739034a71461009b5780638d3a66d8146100b95780638da5cb5b146100e7578063c4d66de814610131575b600080fd5b610081610175565b604051808215151515815260200191505060405180910390f35b6100a3610188565b6040518082815260200191505060405180910390f35b6100e5600480360360208110156100cf57600080fd5b81019080803590602001909291905050506101cd565b005b6100ef61026f565b604051808273ffffffffffffffffffffffffffffffffffffffff1673ffffffffffffffffffffffffffffffffffffffff16815260200191505060405180910390f35b6101736004803603602081101561014757600080fd5b81019080803573ffffffffffffffffffffffffffffffffffffffff169060200190929190505050610295565b005b600560149054906101000a900460ff1681565b60008060405180807f446f6773000000000000000000000000000000000000000000000000000000008152506004019050908152602001604051809103902054905090565b600560009054906101000a900473ffffffffffffffffffffffffffffffffffffffff1673ffffffffffffffffffffffffffffffffffffffff163373ffffffffffffffffffffffffffffffffffffffff1614151561022957600080fd5b80600060405180807f446f677300000000000000000000000000000000000000000000000000000000815250600401905090815260200160405180910390208190555050565b600560009054906101000a900473ffffffffffffffffffffffffffffffffffffffff1681565b600560149054906101000a900460ff161515156102b157600080fd5b80600560006101000a81548173ffffffffffffffffffffffffffffffffffffffff021916908373ffffffffffffffffffffffffffffffffffffffff1602179055506001600560146101000a81548160ff0219169083151502179055505056fea165627a7a7230582048cfb7277f75ae9903c65aec58a35118092f936bd39ae9607d81f8dc2cc1c4b90029",
  "source": "//SPDX-License-Identifier:Unlicensed\r\npragma solidity 0.5.2;\r\n\r\nimport './Storage.sol';\r\n\r\ncontract DogsUpdated is Storage {\r\n  modifier onlyOwner(){\r\n    require(msg.sender == owner);\r\n    _;\r\n  }\r\n  \r\n  constructor() public{\r\n    initialize(msg.sender);\r\n  }\r\n  function initialize(address _owner) public {\r\n    require(!_initialized);\r\n    owner = _owner;\r\n    _initialized = true;\r\n  }\r\n  function getNumberofDogs() public view returns (uint256){\r\n    return _uintStorage[\"Dogs\"];\r\n  }\r\n  function setNumberofDogs(uint256 toSet) public onlyOwner {\r\n    _uintStorage[\"Dogs\"] = toSet;\r\n  }\r\n\r\n}",
  "sourcePath": "C:\\Users\\osass\\OneDrive\\Documents\\BLOCKCHAINSECURITY\\dexentric\\proxyContract\\contracts\\DogsUpdated.sol",
  "compiler": {
    "name": "solc",
    "version": "0.5.2+commit.1df8f40c.Emscripten.clang"
  },
  "schemaVersion": "3.4.4",
  "updatedAt": "2022-08-18T16:19:11.269Z",
  "networkType": "ethereum",
  "devdoc": {
    "methods": {}
  },
  "userdoc": {
    "methods": {}
  }
}